:100000000C9407050C944E050C944E050C9470222C
:100010000C944E050C944E050C944E050C944E0514
:100020000C944E050C944E050C94672A0C943B2BB3
:100030000C9477250C944E050C944E050C944E05AB
:100040000C944E050C944E050C944E050C944E05E4
:100050000C944E050C94EA250C944E050C944E0518
:100060000C944E050C944E050C944E050C944E05C4
:100070000C944E050C944E050C944E050C944E05B4
:100080000C944E050C944E050C944E050C944E05A4
:100090000C944E050C944E050C944E050C944E0594
:1000A0000C944E050C944E050C944E055F002D00EB
:1000B000808182838485868788898A8B8C8D8E8FC8
:1000C0009091929394A0A1A2A3A4A5A6A7A8A9AA3F
:1000D000ABACADAEAFB0B1B2B3B4C0C1C2C3C4C5B6
:1000E000C6C7C8C9CACBCCCDCECFD0D1D2D3D4000D
:1000F00041646A757374005261697365004C6F776F
:1001000065720044656661756C74004C6179657256
:100110003A20002B0033003600370013001C002962
:100120004304001200080018000C00E100346114C0
:10013000680D000E001B00000000000000E2002A15
:10014000412A0038000F00150006000A000900A629
:100150005D1600110017000B000700E5001D0019D7
:10016000001A0010000500000000000000E6002852
:10017000422C002102330236023702000000002424
:10018000022F002F02300226022E000100E000E3C1
:10019000000000000000000000000000000100015D
:1001A00000010031021F02000000000000000020DA
:1001B000021E0230002E022702250201000000006C
:1001C000000000000000000000000000000100002E
:1001D000000100350233020100010000000000228E
:1001E000022400220020001E0026000100E000E39F
:1001F00000000000000000000000000000010000FE
:100200000001003100230200000000000000003562
:10021000002500230021001F00270001000000002E
:1002200000000000000000000000000000010001CC
:1002300000010001000100010001000100010001B6
:100240000001000100E000E10001000100E000E326
:100250000001000100010000000000000001000199
:100260000001000100010001005200010001000135
:100270000001004F00510050000100010001000189
:100280000001004500010000000000000001000125
:1002900000010000000000000000002A2B280000E0
:1002A0000000000000000000000000000000290025
:1002B0000000002C1E3420212224342627252E362F
:1002C0002D3738271E1F202122232425263333369D
:1002D0002E37381F0405060708090A0B0C0D0E0FF0
:1002E000101112131415161718191A1B1C1D2F3173
:1002F00030232D350405060708090A0B0C0D0E0FD7
:10030000101112131415161718191A1B1C1D2F3152
:1003100030354C000000000000000000000000002C
:1003200000000000000000000000000000000000CD
:10033000000000000000007E0F00D4FFFFFFC70098
:1003400000007800AE00AF00DA0281FFD9F1DB20B7
:10035000A4A62EAF00A0C000A1C800AED580A81FE3
:10036000D300408D1420000000000000003E5B4FD1
:100370005B3E003E6B4F6B3E001C3E7C3E1C0018FB
:100380003C7E3C18001C577D571C001C5E7F5E1C89
:100390000000183C180000FFE7C3E7FF0000182426
:1003A000180000FFE7DBE7FF0030483A060E0026A2
:1003B0002979292600407F05050700407F05253F54
:1003C000005A3CE73C5A007F3E1C1C0800081C1CDD
:1003D0003E7F0014227F2214005F5F005F5F0006F3
:1003E000097F017F00006689956A00606060606037
:1003F0000094A2FFA2940008047E04080010207E4E
:1004000020100008082A1C0800081C2A0808001EE2
:1004100010101010000C1E0C1E0C0030383E38302E
:1004200000060E3E0E060000000000000000005F07
:10043000000000000700070000147F147F14002450
:100440002A7F2A120023130864620036495620507E
:1004500000000807030000001C22410000004122A8
:100460001C00002A1C7F1C2A0008083E0808000007
:100470008070300000080808080800000060600074
:10048000002010080402003E5149453E0000427F12
:100490004000007249494946002141494D33001846
:1004A00014127F10002745454539003C4A4949311F
:1004B000004121110907003649494936004649499A
:1004C000291E00000014000000004034000000005D
:1004D00008142241001414141414000041221408BA
:1004E000000201590906003E415D594E007C12117F
:1004F000127C007F49494936003E41414122007F3C
:100500004141413E007F49494941007F09090901B4
:10051000003E41415173007F0808087F0000417F81
:100520004100002040413F01007F08142241007F2C
:1005300040404040007F021C027F007F0408107F83
:10054000003E4141413E007F09090906003E4151FC
:10055000215E007F091929460026494949320003D6
:10056000017F0103003F4040403F001F2040201F0B
:10057000003F4038403F00631408146300030478D0
:100580000403006159494D4300007F41414100028D
:100590000408102000004141417F000402010204D0
:1005A0000040404040400000030708000020545431
:1005B0007840007F284444380038444444280038B8
:1005C0004444287F0038545454180000087E09021F
:1005D000001824241C78007F080404780000447D5F
:1005E0004000002040403D00007F102844000000F3
:1005F000417F4000007C04780478007C0804047883
:10060000003844444438007C18242418001824245A
:10061000187C007C08040408004854545424000446
:10062000043F4424003C4040207C001C2040201C0F
:10063000003C4030403C004428102844004C90903E
:10064000907C004464544C44000008364100000093
:100650000077000000004136080000020102040299
:10066000003C2623263C00000000000000000000A3
:1006700000000000000000C0E0F0F8F81800C0F032
:10068000FCFEFFFFFFFFFFFFFF7E000000000000F9
:1006900000000080C0E0E0E0E0E0E0E0E0C08000DA
:1006A00000000080C0E0E0E0E0E0E0E0E0C08000CA
:1006B0000000E0E0C0C0E0E0E0E00000E0E0C0C03A
:1006C000E0E0E0E0E0C0800000000080C0E0E0E0AA
:1006D000E0E0E0E0E0C0800000000000000000007A
:1006E0000000000000E0F0F0F0E0ECEEF7F3702026
:1006F000007C7C7C7E007E7E7E7F7F7F000080C0D1
:10070000E07E5B4F5BFEC00000C000DCD7DEDEDEBB
:10071000D7DC00C000000000000000000000000066
:1007200000000000000000000000000000000000C9
:10073000F8FCFEFFE000FFFFFFFFFFFF80FFFFFF71
:10074000FFFFFFFFFFFF1F07010000000000000088
:100750000000FFFFFF8100000000000081C3C3C351
:100760000000FFFFFF8100000000000081FFFFFF8D
:100770000000FFFFFF01000000000000FFFFFF017D
:100780000000000001FFFFFF0000FFFFFF9D1C1C99
:100790001C1C1C1C9DDFDFDF0000000000000000AF
:1007A00000000000000F1F3F7F7F7F7F7F3F1E0CF8
:1007B000001F1F1F3F003F3F3F7F7F7F00307B7F39
:1007C0007830202030787F3B0003000F7F0F0F0F21
:1007D0007F0F000300000000000000000000000088
:1007E0000000000000000000000000000000000009
:1007F000030F1F3F3F3F3F1F1F3F3F7F7F7F3F3F15
:100800001F3F7F7F7F7F7C7878381C0F00000000BF
:100810000000000103070707070707070703010098
:100820000000000103070707070707070703010088
:10083000000007070700000000000000070707008E
:10084000000000000007070700000001030707077A
:100850000707070707030100000000000000000071
:100860000000000000000000000000000000000088
:100870000000000000000000000000000000000078
:100880000000000000000000000000000000000068
:100890000000000000000000000000000000000058
:1008A000000000000000000C0343006F0072006EA7
:1008B0000065000000100366006F006F0073007495
:1008C0000061006E0000000403090409023B0002FD
:1008D0000100A0FA0904000001030101000921112F
:1008E0000100012240000705810308000A090401F4
:1008F00000010300000009211101000122B60007D8
:1009000005820320000A120100020000000853467D
:10091000010001000102000105010902A101850297
:100920000901A100050919012908150025019508EB
:10093000750181020501093009311581257F950274
:100940007508810609381581257F9501750881068E
:10095000050C0A38021581257F950175088106C0AE
:10096000C005010980A101850319012AB7001501FD
:1009700026B700950175108100C0050C0901A10181
:10098000850419012AA002150126A00295017510FF
:100990008100C005010906A1018506050719E029A6
:1009A000E715002501950875018102050719002941
:1009B000EF1500250195F07501810205081901293F
:1009C00005950575019102950175039101C0050119
:1009D0000906A101050719E029E715002501950879
:1009E000750181029501750881010507190029FF2C
:1009F000150026FF009506750881000508190129D4
:100A000005950575019102950175039101C01124A9
:100A10001FBECFEFDAE0DEBFCDBF04B603FE27C0B6
:100A20008091750590917605A0917705B091780534
:100A30008730904BA740B04BD1F4109275051092BF
:100A40007605109277051092780514BE84B7877FDB
:100A500084BF0FB6F894A895809160008861809358
:100A60006000109260000FBEE0E0F8E3099512E02C
:100A7000A0E0B1E0E8E5F1E602C005900D92A630F5
:100A8000B107D9F725E0A6E0B2E001C01D92A53775
:100A9000B207E1F70E94E8180C9477300C9400003C
:100AA000CF93C82F0E94A916811101C0C2E08C2FDC
:100AB000CF91089560E08BE091E00E94251D809128
:100AC0003F0290914002A0914102B09142028F30CA
:100AD0009105A105B105B0F4FC01E758FF4C0C9459
:100AE000332D60E083E091E00C94371D60E08DEFE2
:100AF00090E0FACF60E087EF90E0F6CF60E080EF23
:100B000090E0F2CF08959C013056211540E2340761
:100B100020F0305E2115304108F4992720E28C3313
:100B2000910520F4FC01E05BFE4F20811F922F9382
:100B30009F938F93FB0180811F928F9381811F92DE
:100B40008F938FE391E09F938F931F9288E18F9310
:100B500088E092E09F938F930E94582D8DB79EB7A7
:100B60000E960FB6F8949EBF0FBE8DBF089560E03D
:100B700088E092E00C94091D60E080EB90E00C941A
:100B8000251D0E94A916882331F00E945A050E9453
:100B9000B70580E008950E94BC05FBCFCF93DF939B
:100BA000EC01FB0182818823A1F0CE010E94830524
:100BB000C63ADD4571F40E940810827271F081EE30
:100BC0000E942E088EEA90E00E948A0781EE0E9421
:100BD000E00781E0DF91CF9108958CEA90E00E94D8
:100BE0008A07F7CF81E008950C94CE0508950C9400
:100BF000F6051F93CF93DF9300D000D00F92CDB7AF
:100C0000DEB749835A836B833091200289819A81B0
:100C100031111DC06623B9F02223A9F00E94B70C40
:100C2000182F682F89819A810E94600C69817A81CE
:100C3000812F0F900F900F900F900F90DF91CF9119
:100C40001F910C946D130E948E0C182FEFCF0E94F1
:100C5000B70C69817A81EDCFFC01262F408151814B
:100C60006281738184810C94F90581E00895CF93AA
:100C7000DF93EC0160E00E942C06BE01DF91CF9172
:100C80000C94F7050E94C0140E9494070C94E5147C
:100C90000C94E81480E00E9495070C94581E089567
:100CA00008950E94090B0E9450062FEF84E39CE0F8
:100CB000215080409040E1F700C000000C940E26C7
:100CC0000F931F93CF93DF938C0161E00E942C065A
:100CD000EC01B8010E94F4058823A9F1B801CE0106
:100CE0000E946F20882379F1B801CE010E94AF1EC7
:100CF000882349F1B801CE010E94D91F882319F138
:100D0000F8018281882361F0CB35FDE5DF0721F111
:100D100070F4C115ECE5DE07A1F0CF3DDC45C9F06C
:100D2000C801DF91CF911F910F910C94F205CC3542
:100D30008DE5D807A1F0CD35DD4591F70E94CD10A6
:100D4000EFCF0E94510680E0DF91CF911F910F916C
:100D500008950E948711F7CF0E94D610E1CF0E941C
:100D6000D910DECF0C944F060E94F4230E94950701
:100D70000C94B206DF92EF92FF920F931F93CF93E2
:100D8000DF93E82FF0E0ED56FD4FD490282F269505
:100D90002695269530E0F901ED5CFC4F04918770B3
:100DA00010E0082E02C0159507950A94E2F701702D
:100DB0001127F901ED5DFC4FE490F12C082E02C0E3
:100DC000F594E7940A94E2F791E0E922FF24F9010F
:100DD000ED5EFC4FC491D0E002C0D595C7958A95D1
:100DE000E2F7C170DD270115110519F081EE0E94AF
:100DF000E007E114F10419F086EE0E94E0078D2D62
:100E00000E947408EF2819F086EE0E942E08012B2C
:100E100019F081EE0E942E08CD2B51F08CE2DF916B
:100E2000CF911F910F91FF90EF90DF900C94740879
:100E3000DF91CF911F910F91FF90EF90DF90089578
:100E4000EF92FF920F931F93CF93DF938C01F62EB7
:100E50008AE0E82EF8018491882309F454C0813097
:100E600009F04DC0E8012196FE018491813091F492
:100E70002196FE0184910E9474088E010F5F1F4F1E
:100E80008F2D815038F3EFE9FFE03197F1F700C083
:100E90000000F7CF823039F4E8012296FE018491F8
:100EA0000E94E007EACF833039F4E8012296FE0180
:100EB00084910E942E08E1CF8430F9F6E801229651
:100EC000FE01249190E080E0FE0131962053330B27
:100ED0002A30310548F0019780F2EFE9FFE03197C1
:100EE000F1F700C00000F7CFE89EA001E99E500D89
:100EF0001124C901840F951F2491EF01E5CF0E94B1
:100F0000BA06E801BACFDF91CF911F910F91FF9000
:100F1000EF90089560E00C94200708950C948D07DD
:100F200081E008950C9490070895CF93C82F0E94F4
:100F30008E078C2FCF910C949207CF93DF93CDB770
:100F4000DEB72B970FB6F894DEBF0FBECDBF4F8331
:100F5000588769877A878B8761110E9428101E82C3
:100F60001D8285E0FE013796DE01119601900D92FB
:100F70008A95E1F78C819D81892B89F449815A8179
:100F80006B817C818D819E810E94490F2B960FB6CB
:100F9000F894DEBF0FBECDBFDF91CF910895898158
:100FA0009A8189238F3F51F3CE0101960E94350625
:100FB0008111E4CFEBCFFC01808191810C94F90C7D
:100FC000CF93C82F882309F447C08CEF8C0F813A48
:100FD000A0F46C2F80910201909103010E946F2474
:100FE000882329F08C2F0E94EA0F0E944B108C2F2F
:100FF0000E94E30FCF910C944B1080E28C0F88304D
:1010000048F4C77081E001C0880FCA95EAF70E94D2
:101010000B10F0CFEBE5EC0FE33040F4F0E0E654DA
:10102000FE4F808190E0CF910C942F24E8E5EC0FE7
:10103000E73150F4F0E0EE0FFF1FE457FE4F8081E0
:101040009181CF910C944524CD3E30F08C2F0E949D
:101050007819CF910C944B1ACF910895882361F1A0
:101060009CEF980F913A20F40E94EA0F0C944B10D9
:1010700090E2980F983050F4877091E001C0990F7A
:101080008A95EAF7892F0E941110F0CF9BE5980FFF
:10109000933020F490E080E00C942F2498E5980F92
:1010A000973120F490E080E00C9445248D3E20F0B0
:1010B0000E94D2190C944B1A08951F93CF93DF937B
:1010C000182FEB010E94E007209731F4812FDF9168
:1010D000CF911F910C942E088FE99FE00197F1F7B3
:1010E00000C000002197F0CF70E060E0893311F478
:1010F00060E570E00C945D08882321F00E940B10DD
:101100000C944B100895882321F00E9411100C9428
:101110004B100895BF92CF92DF92EF92FF920F9300
:101120001F93CF93DF936C01D62FC72FFC01128141
:10113000F580F2949FE0F9220E940110E82E8823A6
:10114000B9F0E12E1123A1F08C2F807F803421F0A3
:1011500080E28D0F8830D0F08091480382FD16C068
:1011600082E00E949C100E94011091E0E82EE92686
:10117000BC2EB2948FE0B822FBE0FB1508F468C0E7
:10118000EB2DF0E0E857FF4C0C94332DE12CF0CF21
:101190000C2F0F70C07F11F00295007F112399F082
:1011A000002359F080E28D0F883010F0D11107C074
:1011B000802F0E940B100E944B108D2F41C0802F5A
:1011C0000E941B10F8CF8D2F0E942E08002309F4D7
:1011D0003FC080E28D0F883010F0D11104C0802F05
:1011E0000E94111003C0802F0E9421100E944B10FA
:1011F0002FC00C2F0F70C07FC03211F00295007FFE
:10120000DD2381F0D13009F469C0112309F473C0E2
:10121000FF2009F469C0F601858180FFCECF8F7071
:10122000858362C08091480382FF38C0112359F042
:10123000002329F0802F0E940B100E944B1080E0A9
:101240000E94E00705C080E00E942E080111C7CF70
:10125000EB2DE850FF0B349720F40E94F4230E94FA
:101260009507EE2009F472C10E94FD0F80FD6EC14A
:10127000F60112820E94F70F0E94C40BC6010E9461
:10128000C70A0E94F70FDF91CF911F910F91FF9036
:10129000EF90DF90CF90BF900C94E50B112389F075
:1012A000F11006C00E942E10802B0E947C08D0CF27
:1012B00021E0F212F7CF0E942E10802B0E943410F2
:1012C000C7CFF11006C00E944110802F0E948308F2
:1012D000BFCF31E0F31609F4BBCFF5CF112331F0C6
:1012E00085E08F1508F4B4CF802FDFCF94E09F15F1
:1012F00008F4AECFEACFFF2041F3D93349F4FFEF32
:1013000027EE33E0F15020403040E1F700C000000C
:101310008D2F0E942E089CCF8C2F869586958370EA
:1013200069F0813009F094CF8D2F9C2F93701111AB
:1013300002C090E080E00E9445248ACF8D2F9C2F30
:101340009370111102C090E080E00E942F2480CFA2
:101350008D2F112329F00E9478190E944B1A78CF03
:101360000E94D219FACF8C2F837009F041C011115D
:101370006FCF4D2F429546954770440F440F0D2F68
:101380000F7010E030E020E0042E04C0000F111FA9
:10139000221F331F0A94D2F760E070E0CB01D4FF24
:1013A0000FC06FE070E080E090E004C0660F771F30
:1013B000881F991F4A95D2F76095709580959095F2
:1013C000C695C695C370602B712B822B932BC230B0
:1013D00049F058F4C13019F00E94760B39CF0E94C1
:1013E000640B36CF0E94880B33CF0E94620B30CF44
:1013F0008695112311F08C2F8170882309F428CF52
:101400004D2F429546954770440F440F0D2F0F7096
:1014100010E030E020E0042E04C0000F111F221F56
:10142000331F0A94D2F760E070E0CB01D4FF0FC005
:101430006FE070E080E090E004C0660F771F881FC7
:10144000991F4A95D2F76095709580959095C695AD
:10145000C695C370602B712B822B932BC23049F041
:1014600058F4C13019F00E943B0CF2CE0E94290CB6
:10147000EFCE0E944D0CECCE0E949E0BE9CECF70B9
:10148000112329F08C2F0E94C40B8D2F0ECF8D2F8E
:101490000E9483088C2F0E94E50BDACED23F51F1D7
:1014A00060F4D03FB9F0D13F81F0112309F449C075
:1014B000F11083CE8C2F8F7121C0D33F11F1D43F17
:1014C000A1F78091480382FF26C08C2F8F711123D2
:1014D00011F314C0112349F084E08F1508F4B8CE3D
:1014E0008C2F8F710E94080CB3CE95E09F1508F4E5
:1014F000AFCEF6CF8C2F8F711111CDCF0E94C40BC0
:10150000A7CE112329F08C2F8F710E94AF0BA0CE94
:101510000E94AA0B9DCE112349F0CF718C2F0E94FF
:10152000C40B63E08C2F0E94811092CE81E00E9458
:101530009C10E1E0EF1508F08BCE82E00E949C1039
:1015400087CEF110DACE8C2F8F71A5CFDF91CF919E
:101550001F910F91FF90EF90DF90CF90BF90089573
:101560000F931F93CF93DF93EC01688179818A8178
:101570000E94030D8C010E945F0C0E94610BB80158
:10158000CE01DF91CF911F910F910C948A08CF93D8
:10159000DF93EC018B819C81892B29F088819981D3
:1015A00089238F3F59F4DF91CF910895CE010E9496
:1015B000B00ACE01DF91CF910C943706CE010E9484
:1015C00060068111F3CF0E940110882361F38A81A4
:1015D000882349F38091480382FDE5CF82E0DF91C3
:1015E000CF910C949C1090E080E00E942F2490E01A
:1015F00080E00E9445240E9428100E942B100E9427
:101600004B100E94721B0C944B1A0E94F10F0C9409
:10161000F30A0E9418100C94050BE92FE295EF7065
:10162000E250EE3070F4F0E0EC56FF4C0C94332DA9
:10163000803F19F020F4883E20F481E00895843F33
:10164000E1F380E00895883EC0F3813FD1F7F5CF04
:1016500093FB882780F90895FC01808191810E9485
:10166000F90C0C940D0BCF93DF9300D000D00F92A8
:10167000CDB7DEB70F900F900F900F900F90DF91C6
:10168000CF910895CF93DF9300D000D000D0CDB795
:10169000DEB726960FB6F894DEBF0FBECDBFDF9142
:1016A000CF91089508950C94520B0E94530B6093B0
:1016B00043027093440280934502909346020C9437
:1016C000F30A08950C94550B0F931F930091430256
:1016D000109144022091450230914602602B712BFB
:1016E000822B932B1F910F910C94550B0F931F93EB
:1016F000009143021091440220914502309146022C
:1017000060237123822393231F910F910C94550B17
:101710000F931F93009143021091440220914502C0
:101720003091460260277127822793271F910F91DE
:101730000C94550B0C94520B0C949A0B0E949C0B1E
:1017400060933F0270934002809341029093420263
:101750000C94F30A60E070E0CB010C949E0B0F93A5
:101760001F9341E050E060E070E08A019B0104C0FB
:10177000000F111F221F331F8A95D2F7C901B8012C
:101780001F910F910C949E0B0F931F9341E050E01B
:1017900060E070E004C0440F551F661F771F8A95F4
:1017A000D2F780913F0290914002A0914102B09106
:1017B00042028A019B01082B192B2A2B3B2BC901C2
:1017C000B8011F910F910C949E0B0F931F9341E052
:1017D00050E060E070E004C0440F551F661F771FA3
:1017E0008A95D2F7CB01BA01609570958095909556
:1017F00000913F021091400220914102309142023B
:1018000060237123822393231F910F910C949E0BCD
:101810000F931F9341E050E060E070E004C0440F7C
:10182000551F661F771F8A95D2F780913F029091CE
:101830004002A0914102B09142028A019B01082717
:1018400019272A273B27C901B8011F910F910C9432
:101850009E0B0F931F9300913F0210914002209125
:10186000410230914202602B712B822B932B1F91EE
:101870000F910C949E0B0F931F9300913F021091B8
:101880004002209141023091420260237123822361
:1018900093231F910F910C949E0B0F931F93009114
:1018A0003F02109140022091410230914202602794
:1018B0007127822793271F910F910C949E0B0895F7
:1018C000E92FEE0FE90FEE0F8E0F982F977041E082
:1018D00001C0440F9A95EAF786958695869595E01E
:1018E000899FF0011124EF5DFD4F30E020E070E0B2
:1018F0005191DF011197CB01022E02C09695879579
:101900000A94E2F7817081958527842385278C933B
:101910002F5F3F4F2530310559F70895E92FEE0F1E
:10192000E90FEE0F8E0F982F977086958695869506
:1019300025E0829FF0011124EF5DFD4F50E040E073
:1019400080E0219130E0092E02C0369527950A9457
:10195000E2F721703327042E01C0220F0A94EAF720
:10196000822B4F5F5F4F4530510559F70895BF9265
:10197000CF92DF92EF92FF920F931F93CF93DF935B
:101980008C01C0903F02D0904002E0904102F09064
:1019900042028091430290914402A0914502B0918D
:1019A0004602C82AD92AEA2AFB2ACFE1D0E0BC2E77
:1019B000D701C6010C2E04C0B695A79597958795BB
:1019C0000A94D2F780FD0EC0219788F7B12C8B2D99
:1019D000DF91CF911F910F91FF90EF90DF90CF900B
:1019E000BF900895B8018C2F0E948113019761F375
:1019F000EECFCF93DF93EC010E94B70CBE01DF91D5
:101A0000CF910C9481131F93CF93DF93EB019091AF
:101A10002002992331F0CB01DF91CF911F910C94DB
:101A2000F90C882379F0CB010E94B70C182F682F8E
:101A3000CE010E94600CBE01812FDF91CF911F91DA
:101A40000C948113CB010E948E0C182FF4CF1F939E
:101A5000CF93DF93C091470216E0809148028C1328
:101A600004C0DF91CF911F910895D0E01C9FF00139
:101A70001D9FF00D1124E75BFD4F40815181628174
:101A80007381848195810E94420B2196C770E5CFB6
:101A90004091790250917A0260917B0270917C02B0
:101AA00080917D0290917E020C94420BFF920F93E5
:101AB0001F93CF93DF9380917E02807FD1F480913A
:101AC0007B028823B1F08091470210914802609117
:101AD000790270917A02A0917C02B0917D02062F6A
:101AE0000723C0910001D091010196E0F92E18134F
:101AF00006C0DF91CF911F910F91FF90089590E064
:101B0000109711F00F3F19F401968770F0CFF89EEF
:101B10009001F99E300D1124F901E75BFD4F4181E1
:101B20004713F2CF40814613EFCF42814111ECCFF2
:101B3000438154814A1B5B0B4C175D0728F780914A
:101B40007E028F70806180937E02F901E25BFD4F1F
:101B500080818F708061808389E792E00E94C70A4C
:101B6000DF91CF911F910F91FF900C94270DAF92B1
:101B7000BF92CF92DF92EF92FF920F931F93CF937A
:101B8000DF93CDB7DEB761970FB6F894DEBF0FBE17
:101B9000CDBF8C0185E0F801DE011D9601900D920C
:101BA0008A95E1F7F801E28089E7C82E82E0D82E15
:101BB00060917C0270917D026115710509F44DC13F
:101BC0009091790220917A02892F82238F3F09F424
:101BD00044C140815181A380B480F0907B02F50123
:101BE000E61BF70BBF01E0910001F0910101FF201E
:101BF00009F404C180917E02382F307F6E177F0771
:101C000008F0BDC0311179C0FE2C251323C09413F8
:101C100021C0E1101FC08F70806180937E020E94FE
:101C2000480DC6010E94C70A80917E02F801858393
:101C30008F2D61960FB6F894DEBF0FBECDBFDF913A
:101C4000CF911F910F91FF90EF90DF90CF90BF90B9
:101C5000AF900895AB2829F0842F85238F3F09F09A
:101C600015C180E0F82FF170DF2E80FF3CC080911D
:101C700047022091480236E0821315C04D875E87E7
:101C80008D859E850E94F90C292F22952F70223078
:101C9000F0F0243018F59F70F1F0F8019581907FF5
:101CA000D1F4D12C1EC090E0389FF001399FF00D87
:101CB0001124E75BFD4F6181651306C060816413E9
:101CC00003C062816E110FC001968770D5CF9F70DF
:101CD00011F0882331F3805E883018F3C8010E9428
:101CE000C70AFD2CA5CFEE2009F4A2CF80917E0279
:101CF000816080937E02F12C9BCF251314C0941336
:101D000012C0E11010C0F8018583C8010E94C70A03
:101D100086E0F801A9E7B2E001900D928A95E1F71B
:101D20000E94480D85CFC8010E942C0B882319F111
:101D3000EE2009F180917E02803270F020917902CC
:101D400030917A0238872F831986BB86AA868C87C2
:101D5000CE0107960E94C70A86E0F801A9E7B2E023
:101D600001900D928A95E1F70E94560D0E94480D50
:101D7000FF24F3945DCFC8010E94C70AF9CF311147
:101D800013C07A2DB98AA88A6E2D89890E94330BD7
:101D900089E792E00E94C70A86E0F60111928A95CF
:101DA000E9F70E94480DA7CF25130FC094130DC06B
:101DB000E1100BC0F8018583C8010E94C70A86E0C4
:101DC000F60111928A95E9F733CFC8010E942C0BD6
:101DD000882389F2EE2079F280917E02803208F425
:101DE000BBCF2091790230917A023A8329831B82FA
:101DF000BD82AC828E83CE010196ACCF6E177F0779
:101E0000F8F4FE2CEE2009F4B6CF25130BC0941382
:101E100009C086E0F801A9E7B2E001900D928A9529
:101E2000E1F706CFC8010E942C0B811195CF80915C
:101E30007E02816080937E02C8010E94C70AF8CEAC
:101E40007A2DB98AA88A6E2D89890E94330B86E083
:101E5000F60111928A95E9F763CFEE2009F48BCF52
:101E6000C8010E942C0BF82E882309F484CF86E049
:101E7000F801A9E7B2E001900D928A95E1F789E7B0
:101E800092E00E94DB070E94560D4ACF81E08E252A
:101E9000E9CE1F93CF93DF93CDB7DEB72C970FB664
:101EA000F894DEBF0FBECDBF4F83588769877A870E
:101EB0008B879C87CE0107960E94B70D882369F017
:101EC0008A859B85892B39F04F815885842F8523FE
:101ED0008F3F09F071C016E05FC086E0FE013796C3
:101EE000DE01119601900D928A95E1F78A859B8516
:101EF000892B89F38F81988589238F3F61F3209106
:101F0000480230E0C9010196877099274091470245
:101F10004817190671F40E94090B1092480210929A
:101F2000470286E0E9E7F2E0DF011D928A95E9F7D2
:101F3000D2CF96E0929FD001939FB00D1124A75B62
:101F4000BD4FFE01319601900D929A95E1F7809375
:101F500048020E94270DBFCF819FC0011124875BDB
:101F60009D4F0E94B70D8823E9F0E09147021E9F24
:101F7000F0011124E75BFD4F408151816281738143
:101F8000848195810E94420B8091470290E00196E6
:101F90008770992780934702809147029091480269
:101FA0008913DACF2C960FB6F894DEBF0FBECDBFE3
:101FB000DF91CF911F91089569857A858B859C85E6
:101FC0000E94420B88CF682F8091020190910301FB
:101FD0000C94EF24682F80910201909103010C94DE
:101FE000FA2480910201909103010C9405258091BF
:101FF0007F02859585958595089580917F028770EC
:10200000089590917F02977081E009F480E008952F
:102010008091A30208959091A302892B8093A3023B
:10202000089580959091A30298239093A302089518
:102030001092A30208959091A202892B8093A2028C
:10204000089580959091A20298239093A2020895FA
:102050001092A20208951092A10208958091800228
:10206000089508950C9431109091480392FD08C092
:1020700090918002981721F0809380020C94321086
:10208000089580918002882329F01092800280E0D8
:102090000C9432100895E0910201F09103018091B7
:1020A000A3028083E0910201F0910301808190916D
:1020B000A202892B8083E0910201F09103018081CB
:1020C0009091A102892B808390918002992381F0C5
:1020D000E0910201F09103018081892B808380913E
:1020E0000201909103010E945B2481110E94411022
:1020F00080910201909103010C94072408950C949F
:102100007E109091480392FD10C098E0899F900145
:102110001124622B60937F020E94C40B80917F0286
:102120008595859585950C947F100C94C40B109221
:102130007F0280E00C947F1090917F02809589232C
:1021400080937F02282F277091F4282F082E000CEF
:10215000330B9217130659F09091480392FD07C074
:102160008595859585950E94E50B0C9497100895AB
:102170009091480392FB222720F9281769F080FBF1
:1021800092F99093480380914703909148030E94ED
:10219000031182E00C949C1008958091480382FB07
:1021A000882780F991E089270C94B81081E00C947D
:1021B000B81080E00C94B8106FEF7FEF90E080E0F3
:1021C0000C942A3090E080E00E94063021E0893EA5
:1021D0009E4F09F020E0822F089582E090E00C9459
:1021E000FE2F83E090E00C94FE2FCF9384E090E0EC
:1021F0000E94FE2FC82F82E290E00E94FE2F982FAF
:102200008C2FCF910895CF93C92F682F84E090E051
:102210000E940C306C2F82E290E0CF910C940C3035
:10222000AB01BC018FE090E00C941E30AB01BC010F
:1022300083E190E00C941E3060E070E0CB010C94E0
:10224000161160E070E0CB010E9410110C941C117B
:1022500069EE7EEF90E080E00E942A3060E082E04C
:1022600090E00E940C3060E083E090E00E940C302F
:1022700010924302109244021092450210924602BC
:1022800060E084E090E00E940C3060E082E290E048
:102290000E940C3060E085E090E00E940C3060E02D
:1022A00086E090E00E940C306FEF87E090E00E94A3
:1022B0000C3040E050E0BA0188E090E00E941E300F
:1022C00060E08DE090E00E940C3040E050E0BA0108
:1022D00088E190E00E941E3060E087E190E00E947B
:1022E0000C3040E050E0BA018CE190E00E941E30DA
:1022F00070E060E080E290E00E942A3040E050E030
:10230000BA0188E190E00E941E300C9421110C94D7
:102310002811682F8EE090E00C940C300E94B325B9
:102320006093B1027093B2028093B3029093B402AF
:102330006093AD027093AE028093AF029093B002AF
:10234000089585B7806885BF85B7806885BF089583
:10235000089508950C94A81108950C94AC110E944E
:10236000A11180EA94E10E94EA230E94A9110C9431
:10237000AA110C94A916089508950E94BB110C94FB
:10238000BC110E949E250E945F140E9494150E9419
:10239000801B80E00E94DE1B0C94AD119F92AF92D7
:1023A000BF92CF92DF92EF92FF920F931F93CF9342
:1023B000DF93CDB7DEB72A970FB6F894DEBF0FBE16
:1023C000CDBF0E941F16C82E81110E948E1185EA72
:1023D000A82E82E0B82E10E000E0902E802F0E9400
:1023E000EA14E82EF501F1905F01F81609F454C0E3
:1023F0008091B50281FD0E94F0148F2D8E25D12C85
:10240000FF24F394982F9F2109F441C00E94B91131
:10241000882399F0DE829F82EF2081E009F480E03A
:1024200088870E94A7258160782F9A8789874E81A7
:102430005F8168858A850E949D07F801EB55FD4FF5
:102440008081F826F0820E94751EC1100E943C1DFA
:102450000E94661A0E94F4239091A402891799F1B0
:102460000E94F4238093A4022A960FB6F894DEBF4C
:102470000FBECDBFDF91CF911F910F91FF90EF90D5
:10248000DF90CF90BF90AF909F900C949507D3941E
:10249000FF0CF6E0DF12B6CF0F5F1F4F08301105BB
:1024A00009F09BCF8FEF89838A831B820E94A72527
:1024B0008160782F9D838C8349815A816B818D81C6
:1024C0000E949D07C0CF2A960FB6F894DEBF0FBEBC
:1024D000CDBFDF91CF911F910F91FF90EF90DF90D3
:1024E000CF90BF90AF909F900895CF93DF930E94BD
:1024F0008513EC01811521E5920708F042C0811592
:1025000030E5930708F09DC0883E910530F5803E88
:10251000910508F092C0883A910588F4853A9105B2
:1025200008F084C08130910509F487C0009709F450
:1025300084C0049708F081C0D0E0C0E07EC08F3B2B
:102540009105D0F7C85AD0E0CC0FDD1FC354DE4F41
:102550000990D881C02DD46470C08115904250F488
:10256000C11581E0D80708F068C0CD3ED10520F341
:10257000D06563C0C11590E4D907F0F2DF70D06A6E
:102580005CC0811525E5920700F5811534E59307B8
:1025900008F08BC0811543E5940708F073C0C1159E
:1025A00082E5D80708F469C0CE018370992721E03D
:1025B00030E002C0220F331F8A95E2F7C695C69518
:1025C00080E2C89FE001112454C0C11599E5D907E4
:1025D000A8F4C11528E5D20708F06CC0C11536E58E
:1025E000D30708F0A9CF8C2F0E941C14C82FD0E06D
:1025F000DC2FCC27CC27DF71D0621FC0C1154AE584
:10260000D40708F45CC0CE0190568115904208F0C2
:1026100093CF8D2F8F710E941C1490E0982F8827E4
:1026200088279F719C012C2BE901E6CFC55AD0E089
:10263000C551DE4FC881D0E0D064CE01DF91CF918B
:102640000895E4E096958795EA95E1F783702C2F3D
:1026500026952695237040E2249F90011124382B63
:102660008C2F8370C1E0D0E002C0CC0FDD1F8A95B3
:10267000E2F7C22BD32BDC68E0CFDC2FCC27C16F75
:10268000D06ADBCF8370992721E030E002C0220FAF
:10269000331F8A95E2F7C695C69590E2C99FE0017F
:1026A0001124C22BD32BDA68C8CFD82FCC27C46F04
:1026B000D06AC3CFDC2FCC27C06FD06ABECF8C2F9F
:1026C0008F700E941C1434E0D695C7953A95E1F7B7
:1026D000CF709C2FEC01D069B0CF972F70E026E02F
:1026E000929F600D711D1124FB0190E3899FE00D05
:1026F000F11D1124EE0FFF1FED5EFE4F85919491A9
:1027000008950E946D130C94751282389105B1F1F1
:10271000B0F48133910509F475C048F4893291050C
:1027200009F469C08A32910509F473C008958533AC
:10273000910509F459C08933910501F10895833E4B
:102740009105A9F138F4803E9105F9F0823E91059A
:1027500049F10895863E9105A9F1873E9105C9F199
:10276000843E910519F52091480321FF1FC08091F7
:10277000470384FD14C087EE90E00895209147033D
:102780002370A1F080EE90E008952091470320FD92
:1027900047C03091480330FF09C024FF44C090E097
:1027A00080E004C02091470322FDF7CF08952091D7
:1027B000470322FD3BC03091480330FDE3CF24FFA7
:1027C000F5CFEDCF2091470323FFF0CF24FDE7CFD6
:1027D000D2CF2091470323FD2CC03091480331FF15
:1027E000EECF84EE90E008952091470325FFDECFE1
:1027F00089E290E008952091470325FFD7CF85E334
:1028000090E008952091470326FFD0CF8AE290E020
:1028100008952091470326FFC9CF81E390E00895F2
:1028200089E390E0089583EE90E0089582EE90E0D1
:10283000089586EE90E008959091470392FF06C0B8
:10284000282F28712830F9F4877F846093FF06C011
:10285000282F28712831F1F4877E84612091480364
:1028600020FF06C0382F38713830D9F4877F816057
:1028700021FF06C0282F28712831D1F4877E81617D
:1028800094FD877E0895282F24712430F9F68B7FDC
:102890008860DCCF282F2471243101F78B7E88617A
:1028A000DDCF382F3171313019F78E7F8860E0CF5E
:1028B000282F2171213121F78E7E8861E1CF10927E
:1028C0004303109244031092450310924603089567
:1028D000CF92DF92EF92FF926B017C010E94A916CA
:1028E00081110EC00E94B325C61AD70AE80AF90A58
:1028F000C0924303D0924403E0924503F092460312
:10290000FF90EF90DF90CF9008950F931F930E9458
:10291000A916882321F01F910F910C94B3250E94D2
:10292000B325009143031091440320914503309156
:102930004603600F711F821F931F1F910F9108950F
:1029400080E008950C94DC100E941F168FE39CE930
:102950000197F1F700C000000E941F160E94C116E7
:10296000811109C084E00E94EA1481FF06C00E9420
:10297000A2140C940E2680E0F6CF08950C94A414B3
:102980000E94E210811102C00E9487110E94ED1086
:102990008093B5020E94F5109093480380934703FB
:1029A0000E94BE140E94F110682F70E090E080E059
:1029B0000E94620B60913F0270914002809141023F
:1029C000909142020C949C0B08950C94E414089589
:1029D0000C94E714E82FF0E0EF5AFC4F8081089543
:1029E000089580EA8A95F1F7089500C008950C943F
:1029F000F114F894E82FE295EF70F0E031A1282F60
:102A00002F7081E090E001C0880F2A95EAF7982F97
:102A10009095932391A392A1892B82A378940895F2
:102A200008950C941015CF93DF9384E90E94F91454
:102A300086E60E94F91487E90E94F91486EC0E9448
:102A4000F914CEEED1E089918F3F11F00E94F91474
:102A500081E0C43FD807B9F7DF91CF910895CF92B5
:102A6000DF92EF92FF920F931F93CF93DF93EC01CE
:102A7000D62E062F10E0C8018C509E4F7C01FC0121
:102A800080818F3F09F445C0F894E82FE295EF70FC
:102A9000F0E091A18F7021E030E001C0220F8A9513
:102AA000EAF7892F822B81A382A12095282322A3D4
:102AB00078940E94F514EEEEF1E044EF51E031E03D
:102AC000C12C21912F3F71F1A22FA295AF70B0E0E0
:102AD00090968C9190E02F7002C0959587952A95DD
:102AE000E2F780FD1FC0832FC82A330F4E175F0700
:102AF00041F7F70180818F3F11F00E94F91461E0E6
:102B0000C11001C060E08D2D0E94F714C00FD11FCD
:102B1000C882DF91CF911F910F91FF90EF90DF90CE
:102B2000CF90089580E0E0CF0E94C3168091040109
:102B30008091040194E0811190E090935A0384E025
:102B4000891B809359030E94131588E0E1E5F3E0A7
:102B5000DF01982F1D929A95E9F7E9E4F3E0DF0190
:102B60001D928A95E9F784E00E9472160E9442063F
:102B70000C94CD16EF92FF921F93CF93DF9300D06A
:102B800000D0CDB7DEB70E94A916182F60915A0366
:102B9000882309F447C019821A821B821C82862F5F
:102BA00090E09E012F5F3F4F7901B9018F5A9C4FF2
:102BB0000E94DB168823E9F08091590390E044E0FD
:102BC00050E0B7018F5A9C4F0E94422D21E0209384
:102BD000B602892BC9F410E00E944806812F0F909D
:102BE0000F900F900F90DF91CF911F91FF90EF907A
:102BF00008958091B602882371F384E0F701119261
:102C00008A95E9F71092B602E0915903F0E0EF5A85
:102C1000FC4F89819A81AB81BC8180839183A2839F
:102C2000B383DACF70E06F5A7C4F8091590390E004
:102C30008F5A9C4F0E9468170E941115CFCFEF92B8
:102C4000FF920F931F93CF93DF93CDB7DEB72897F3
:102C50000FB6F894DEBF0FBECDBF8E010F5F1F4FC2
:102C600088E0F80111928A95E9F7F12C6F2DC801DF
:102C70000E942F15F394F4E0FF12F8CF48E050E0E3
:102C8000B80189E493E00E94422D7C0121E0892B68
:102C900009F420E0E114F10441F088E0F801A9E42E
:102CA000B3E001900D928A95E1F760915A0370E0CC
:102CB0006F5A7C4F44E089E493E00E94731681E0F0
:102CC00090E0EF2811F40E94BA1528960FB6F894F8
:102CD000DEBF0FBECDBFDF91CF911F910F91FF904F
:102CE000EF9008950895FF920F931F93CF93DF9372
:102CF000F82E092F162FD72FC42F222349F081E059
:102D00008093B9020E94A7259093B8028093B702DE
:102D10008091B9028823A1F08091B7029091B80206
:102D20000E94BF25059760F0EF2DF02FA12FBD2F3A
:102D3000CE0FDF2FD11DEC17FD0741F41092B90221
:102D4000DF91CF911F910F91FF90089581918D9305
:102D5000F2CF8091BC02811107C00E94F22C88231F
:102D600051F081E08093BC0281E09091BC029130EF
:102D700009F080E0089582E08093BC020E94ED2C6F
:102D8000F3CF0C94A9160E94C116809304010E94EF
:102D9000A91681110C94111708950E94A91681118A
:102DA00002C00C941317089581E09091BD029A30EF
:102DB00008F080E008950F931F93CF93DF93EC0109
:102DC0008B018091BD028A30B8F4B801CE010E9417
:102DD0006617C82F811122C08091BD028F3FB9F4C0
:102DE0000E94A7259093BB028093BA028C2FDF919B
:102DF000CF911F910F9108958091BA029091BB02DB
:102E00000E94BF25843F914000F7C0E0EFCF8F5F65
:102E10008093BD028A3020F7C1E0E8CF1092BD0256
:102E2000E5CF0C9429220C942C22EF92FF920F9361
:102E30001F93CF93DF937901C82F880FDD0B4115C6
:102E40005105A9F08AE08C9FF0018D9FF00D1124AF
:102E5000EB5FFE4F8381948182549D4F228130E04D
:102E60004217530708F49A01A9010E944F2DCE0181
:102E70000E943623892B11F501151105E9F08AE02E
:102E80008C9FF0018D9FF00D1124EB5FFE4F45816B
:102E900050E00417150708F4A8018AE08C9FF001A0
:102EA0008D9FF00D1124EB5FFE4F66817781625498
:102EB0007D4FC7010E944F2D81E001C080E0DF916E
:102EC000CF911F910F91FF90EF9008950C94861869
:102ED0000C94A2180F931F93CF93DF9300D000D0D0
:102EE000CDB7DEB76091D3027091D4028091D50244
:102EF0009091D6020E94CE2511E0643671058105BD
:102F0000910518F10E9485146E5F7F4F8F4F9F4F80
:102F100069837A838B839C8310E000E030E020E0BB
:102F200044E050E0BE016F5F7F4F82E00E941517C2
:102F3000182F882351F00E94B3256093D302709319
:102F4000D4028093D5029093D602812F0F900F90D8
:102F50000F900F90DF91CF911F910F910895AF9235
:102F6000BF92CF92DF92EF92FF920F931F93CF9376
:102F7000DF9300D000D00F92CDB7DEB75B01E090B9
:102F8000FC01F090FD0101E010E09E012B5F3F4F3E
:102F900050E040E070E060E080E00E941517182FDC
:102FA000882309F44BC067018FEFC81AD80A6091D3
:102FB000CF027091D0028091D1029091D2020E94F2
:102FC000CE25643671058105910580F104E010E09D
:102FD0009E012F5F3F4F50E040E070E060E081E0F5
:102FE0000E941517F82E64E070E0C6010E94811B54
:102FF00011E09D81981310E01F2159F10E94B32523
:103000006093CF027093D0028093D1029093D2024A
:1030100089819A81AB81BC818093CB029093CC0251
:10302000A093CD02B093CE0211E013C064E070E033
:10303000C6010E94811B9D818913C8CFF701818140
:103040009281A381B48189839A83AB83BC8311115C
:10305000DFCF8091CB029091CC02A091CD02B091B4
:10306000CE02F50180839183A283B383812F0F90D9
:103070000F900F900F900F90DF91CF911F910F91B4
:10308000FF90EF90DF90CF90BF90AF900895AF92F8
:10309000BF92CF92DF92EF92FF920F931F93CF9345
:1030A000DF937C015B016A010E94D41601E010E00D
:1030B000882311F00AE010E0C1E0D0E0F894B501F7
:1030C000C701F60109957894811104C021960C1767
:1030D0001D075CF4DF91CF911F910F91FF90EF904E
:1030E000DF90CF90BF90AF900895CC9F9001CD9F7F
:1030F000300D300D112490E080E045E34A95F1F762
:103100000000019682179307C1F7D8CF0F931F9342
:10311000CF93DF93EC018B014FEA57E10E944718F0
:10312000882351F04AE657E1B801CE01DF91CF91F3
:103130001F910F910C94471880E0DF91CF911F9160
:103140000F9108950F931F93CF93DF93F894C0913D
:10315000FC01D091FD01CE01019624E0FB01DC01D0
:1031600001900D922A95E1F764E070E00E94811BC6
:1031700088837894F8946D817E818F819885009101
:10318000C7021091C8022091C9023091CA0260178B
:1031900071078207930751F06093C7027093C802CA
:1031A0008093C9029093CA020E9468147894DF91B8
:1031B000CF911F910F9108950E94C1270E94C111C4
:1031C0000C94CD270E94D1270E94CE110C94EB279E
:1031D0000E9431250E94A8270E94AF110E94DC188E
:1031E0000E94E2180E94BD11FBCF8091DD0280FF9A
:1031F00012C06091280185E0689FB0011124759587
:1032000067957595679560387105A8F56115710525
:10321000A1F1862F089581FF09C06091280185E002
:10322000689FB001112475956795EDCF60912801D5
:1032300082FD0AC08091DC028823D1F090912701A1
:1032400060912801891728F085E0689FB00111245A
:10325000DACF869FB001112485E0869F9001879F79
:10326000300D1124692F70E0C9010E941F2DCBCFB2
:1032700065E070E0CECF8FE7089581E008958091FA
:10328000DD0280FF0CC06091240170E075956795A8
:10329000759567956115710549F1862F089581FF30
:1032A00006C06091240170E075956795F3CF609139
:1032B000240182FD0BC09091DB029923A1F0609163
:1032C000230180912401961738F0682F70E0603850
:1032D000710500F38FE70895899FC001112470E004
:1032E0000E941F2DF4CF61E070E0D7CF81E00895F8
:1032F0008D3E31F40E94F51881958093E102089586
:103300008E3E19F40E94F518F8CF8F3E31F40E94DA
:10331000F51881958093E0020895803F19F40E948A
:10332000F518F8CF893F29F40E943F198093E202F3
:1033300008958A3F21F40E943F198195F7CF8B3F72
:1033400031F40E943F1981958093E30208958C3FE8
:1033500019F40E943F19F8CF9FE0980F983070F44D
:10336000815F990B21E030E001C0220F8A95EAF7D6
:103370008091DF02822B8093DF0208958D3F31F42C
:103380008091DD0281608093DD0208958E3F21F4FB
:103390008091DD028260F7CF8F3FB9F78091DD0227
:1033A0008460F1CF4091E0028D3E59F48091E102BA
:1033B00087FF0DC01092E10241110BC01092DC0298
:1033C00008C08E3E81F48091E10218169CF34423DC
:1033D00081F08091E2029091E302892B09F05AC0BA
:1033E0001092DB0208958F3E49F447FFF0CF109210
:1033F000E0028091E1028111ECCFE0CF803F19F42F
:103400001416ACF3E4CF9091E202893F29F4191627
:10341000F4F61092E202DBCF8A3F19F497FFD7CF80
:10342000F8CF9091E3028B3F29F497FFD0CF109211
:10343000E302CDCF8C3F19F41916CCF3C8CF9FE02F
:10344000980F983090F4815F990B21E030E0B9013A
:1034500002C0660F771F8A95E2F7CB0180959091A5
:10346000DF0289238093DF02B2CF8D3F31F4809158
:10347000DD028E7F8093DD02AACF8E3F21F4809102
:10348000DD028D7FF7CF8F3F09F0A1CF8091DD0264
:103490008B7FF0CF08950E94A7259C019091E002B8
:1034A0008091E102982B21F03093DA022093D90227
:1034B0009091E2028091E302982B21F03093D802A0
:1034C0002093D7028EED92E00C942124EF92FF928C
:1034D0000F931F93CF93DF9300D000D000D0CDB7D0
:1034E000DEB786E0EEEDF2E0DE01119601900D927E
:1034F0008A95E1F7E090E002F090E1020091E202AB
:103500001091E3021092E0021092E1021092E202A6
:103510001092E3028E2D8F2991F08091D902909123
:10352000DA020E94BF25AC019091DC02992309F4D4
:103530003FC0809129018417150608F447C0802FE9
:10354000812B91F08091D7029091D8020E94BF25E3
:10355000AC019091DB02992309F477C08091250199
:103560008417150608F47FC08091E0029091E10273
:10357000892B9091E202892B9091E302892B11F023
:103580000E944B1A86E0FE013196AEEDB2E001904A
:103590000D928A95E1F726960FB6F894DEBF0FBE1E
:1035A000CDBFDF91CF911F910F91FF90EF900895C4
:1035B00020912A018AE0289F9001112424173507C1
:1035C00008F0BDCF9F5F9093DC0202C09F3FD1F710
:1035D000EE2059F00E94F5189FEF1E140CF491E0B4
:1035E000899F802D11248093E002FF2059F00E94D2
:1035F000F5189FEF1F140CF491E0899F802D112482
:103600008093E1023091E002332309F498CF2091B6
:10361000E102222309F493CF45EB3403C0011124C6
:10362000992359F09093E00245EB24039001112473
:10363000332339F03093E10282CF81E08093E002BE
:10364000F3CF81E08093E1027ACF209126018AE0D6
:10365000289F900111242417350708F085CF9F5F1C
:103660009093DB0202C09F3FD1F7002359F00E94E4
:103670003F199FEF10160CF491E0899F802D1124C3
:103680008093E202112359F00E943F199FEF111617
:103690000CF491E0899F802D11248093E3023091F6
:1036A000E202332309F460CF2091E302222309F4DC
:1036B0005BCF45EB3403C0011124992359F090935B
:1036C000E20245EB240390011124332339F03093B7
:1036D000E3024ACF81E08093E202F3CF81E080935E
:1036E000E30242CF86E0EEEDF2E0DF011D928A9523
:1036F000E9F71092DC021092DB021092DD020895CD
:103700000895FC01680F791F8FEF91E36E177F0713
:1037100009F408952191822728E030E087FF06C050
:10372000880F892721503109C9F7F0CF880FFACFC8
:10373000CF92DF92EF92FF920F931F93CF93DF937D
:103740006C017B0164E670E088E70E94C720EC0111
:1037500097FD12C010E000E0F601E00FF11F849128
:1037600064E670E00E944121EC01892B29F40F5F8F
:103770001F4F0E151F0581F70E94C421CE01DF9156
:10378000CF911F910F91FF90EF90DF90CF90089510
:103790000895ECE5F3E080E092E0DF019C011D92EA
:1037A00021503040E1F7F0936305E09362058FEF1D
:1037B0009FEF9093100380930F0308950E94C81BFE
:1037C0000E94500580930B0380FD0FC080E880931A
:1037D0000A030E94C1206DE070E08AE593E00E9438
:1037E000981B892B21F080E0089580E2F0CF809132
:1037F0000B0363E070E081FD26C087E593E00E9443
:10380000981B892B81F76DE070E087E493E00E94BC
:10381000981B892B41F70E94B325605A75418F4F41
:103820009F4F60935E0570935F0580936005909352
:1038300061050E94C91B81E080930E0380930D03F4
:1038400010920C03089584E593E0D9CF20910A03E8
:1038500036E0839FC0011124629F800D911D1124C9
:10386000811522E0920714F090E080E0845A9C4F8A
:1038700090936305809362050895209162053091CD
:1038800063052655334040910A03642F70E0C90157
:103890000E940B2D481B463010F4240F311D2115BA
:1038A00082E0380710F030E020E0245A3C4F30939B
:1038B00063052093620508951F93CF93DF93162F1E
:1038C0008A3031F481E0DF91CF911F910C94D61CA6
:1038D0008D3011F480E0F7CFC0916205D09163057F
:1038E00096E0FE01A4EEB2E001900D929A95E1F708
:1038F000803EC8F086E0FE0111928A95E9F7111129
:103900001EC0C0916205D091630546E050E0BE0143
:1039100084EE92E00E94422D892BF9F4DF91CF9141
:103920001F910C943D1CF6E08F9FB0011124695942
:103930007C4F46E050E0CE010E94392DE0CFE0916F
:103940006205F09163059F012A5F3F4F2E173F07E5
:10395000C1F2808180958193F9CFCC55D340CE01BF
:1039600025E0969587952A95E1F721E030E0A901B9
:1039700002C0440F551F8A95E2F7CA0140910F0318
:1039800050911003842B952B259645E0D695C7952D
:103990004A95E1F702C0220F331FCA95E2F7822B46
:1039A000932B9093100380930F03B8CFCF93382FAE
:1039B000E0916205F0916305EC55F34020910A0314
:1039C000622F70E0CF010E940B2D281B822F332322
:1039D00069F066E00E94FF2CC82FC15010F4CF910F
:1039E000089560E080E20E945C1CF7CF9F01280FE1
:1039F000311D2115324018F080E0F0E0E0E08E0F3C
:103A00009F2F911D845A9C4F90936305809362056C
:103A1000E6CFFF920F931F93CF93DF93EC01F62E27
:103A2000FC0101900020E9F78F0101501109C01736
:103A3000D10730F0DF91CF911F910F91FF90089542
:103A40006F2D89910E945C1CF2CF1F93CF93DF935F
:103A5000EC01162FFE018491811104C0DF91CF91FA
:103A60001F910895612F0E945C1C2196F3CF0E9444
:103A7000251D81E00C94D61C80910E03811103C09A
:103A800080910D0308950E94B325605A75418F4FB0
:103A90009F4F60935E0570935F05809360059093E0
:103AA000610580910D038111EBCF62E070E085E448
:103AB00093E00E94981B892B19F781E080930D03F6
:103AC000DFCF2F923F925F926F927F928F929F9261
:103AD000AF92BF92CF92DF92EF92FF920F931F931C
:103AE000CF93DF9380910E03882369F020910F0319
:103AF000309110032115310531F080910C0361E004
:103B000070E0882399F0DF91CF911F910F91FF9082
:103B1000EF90DF90CF90BF90AF909F908F907F906D
:103B20006F905F903F902F9008958F5F082F10E067
:103B30001B01082E02C0220C331C0A94E2F7A901D3
:103B400042215321452B89F390910B0390FD44C0F2
:103B50008295880F807680932D0198013695279560
:103B60003695279520933001815E80932E01109227
:103B7000310124E630E047E050E06BE271E088E795
:103B80000E947021892B09F0BECFA80125E0440FC7
:103B9000551F2A95E1F780910B0380FD2BC0445AF5
:103BA0005C4F04E610E020E230E060E488E70E9429
:103BB0009721892B09F0A7CF0E943C1DE101C095F8
:103BC000D09580910F0390911003C823D923D093EF
:103BD0001003C0930F0397CF880F880F880F80932F
:103BE0002D0110923001895F80932E0183E0809334
:103BF0003101BFCFEAEEF2E080E2DF011D928A954B
:103C0000E9F7A2E0B2E00EEF11E086E0C82E82E014
:103C1000D82E97E0592E772473948D91E80129913D
:103C20008E01240F352F311D245A3C4FE82FF0E030
:103C3000E651FD4F90E080E0652C681A872C082E35
:103C400001C0880C0A94EAF77901A12CE701B99028
:103C50007E01B820662D6A196770962E062E000C1C
:103C6000770BDB2D01C0DD0F9A94EAF77195619512
:103C700071096770772701C0B6946A95EAF7BD2A83
:103C80006081962E9B289082A39468E0A612DECFD6
:103C9000019631968830910579F6CA16DB0609F04F
:103CA000BCCF04E610E020E230E04AEE52E07DCFE7
:103CB00080910D0390910E03911103C091E089272B
:103CC0000895882369F062E070E083E493E00E9445
:103CD000981B892B19F080910D03089510920D0304
:103CE00080910D03EBCF0C94C1050F931F9380912E
:103CF0000E03882389F180915C0590915D050E94F7
:103D0000BF25C29760F00E94A72590935D05809320
:103D10005C0560E080E00E94261C0E94731E0E94E9
:103D2000611D80910D038823B9F00E94B325009195
:103D30005E0510915F052091600530916105601B63
:103D4000710B820B930B6F3F7F4F8F4F9F4720F478
:103D50001F910F910C94581E1F910F910895CF93AE
:103D6000DF93EC01FB018281882309F420C1C43078
:103D7000FDE5DF07C8F5CB3F9CE5D90730F49E0190
:103D800022503C452431310598F50E94F51090935E
:103D9000480380934703C031FCE5DF0709F4E0C026
:103DA00008F061C0C8309CE5D90709F4CBC088F59C
:103DB000C430FCE5DF0709F4B3C0E8F4C2309CE589
:103DC000D90709F4A7C0809147038260C330DC455E
:103DD00009F4A3C080914703909148030E94031106
:103DE0000E94090B80E004C0C236EDE5DE0769F2EF
:103DF000DF91CF910895809147038061C630FCE543
:103E0000DF0709F48AC008F48FC0809147038062FD
:103E100084C0809147038D7FCC309CE5D90709F49D
:103E20007CC070F4809147038C60CA30FCE5DF07EA
:103E300009F473C008F48AC0809147038E7F6DC077
:103E400080914703877FCE309CE5D90709F465C090
:103E5000809147038B7FCF30DC4508F45EC08091B2
:103E600047038F7E5AC0CD3FFCE5DF0709F474C0DD
:103E700040F5C4319CE5D90709F48AC058F4C23131
:103E8000FCE5DF0709F474C008F46EC080914703B5
:103E9000837F43C0CB3F9CE5D90709F449C008F0B4
:103EA0004DC0C531DC4509F095CF8091470382FBB9
:103EB000992790F921E0922790FB82F990FB83F9F2
:103EC0002CC0C1308DE5D80709F458C088F4809122
:103ED00048038360CF3FECE5DE0769F1809148033A
:103EE0008D7FC115DD4538F1809148038C7F23C05B
:103EF000C3308DE5D80709F458C008F452C0C23663
:103F0000DD4509F067CF90914703892F8F7E94FF9D
:103F1000806103C0809147038160809347035ACF3B
:103F2000809147038460F9CF809147038860F5CF83
:103F3000809148038160809348034CCF809148036F
:103F40008260F9CF809147038064E7CF0E94090B1C
:103F5000809147038068E1CF809148038E7FEBCF4B
:103F6000809147038F7DD9CF809147038F7BD5CF39
:103F70000E94090B809147038F77CFCF8091480330
:103F8000982F909591708E7F892B90FB81F9D3CFDC
:103F90000E94090B90914703892F97FB87F980585E
:103FA000BCCF81E00E94891115CF80E0FBCF81E07A
:103FB0001FCFCF93DF93EB0186319C4511F50E9413
:103FC00008109A81992399F08A7A91E009F490E097
:103FD00090931103811109C089E20E94E30F0E94AE
:103FE0004B1080E0DF91CF91089585E3F6CF80916B
:103FF0001103811104C089E20E94EA0FF0CF85E32A
:10400000FBCF81E0EFCF0F931F93CF93DF93C42FAC
:10401000D22FFC0182818823C9F0409314030E94AF
:10402000A725909313038093120380E28C0F8830AE
:1040300008F050C0C77081E001C0880FCA95EAF748
:10404000DF91CF911F910F910C947C081091140374
:10405000141335C080911203909113030E94BF2561
:10406000883C910560F5C0E2CD0F1D17B9F080E2E4
:10407000810F883040F4177081E001C0880F1A95D5
:10408000EAF70E948308C83048F481E09D2F9770BA
:1040900001C0880F9A95EAF70E947C08802F0E9441
:1040A0007408C830B8F4D77081E001C0880FDA9581
:1040B000EAF7DF91CF911F910F910C94830880E272
:1040C0008C0F883038F4C77081E001C0880FCA9522
:1040D000EAF7EFCFDF91CF911F910F9108950F93E2
:1040E0009C01CB01243F4CE5340759F1A8F4293D4C
:1040F000FCE53F0701F12A3D4CE53407D1F1283DAD
:104100003C4591F406E221EE41EE68ED7CE50E942B
:10411000032080E00F910895263FFCE53F07E9F07A
:10412000B0F0273F3C45F9F0FC018281882339F14A
:1041300010921403EFCF07E225EE45EE69ED7CE522
:10414000E6CF06E221EE40EE64EF7CE5E0CF07E249
:1041500025EE44EE65EF7CE5DACF06E221EE42EE95
:1041600066EF7CE5D4CF07E225EE46EE67EF7CE50F
:10417000CECF08E221E045EE6AED7CE5C8CF81E0D4
:10418000C9CF1092B9008CE08093B80008959F9237
:10419000AF92BF92CF92DF92EF92FF920F931F9355
:1041A000CF93DF93B82EEB010E94A7256C01EE247C
:1041B000E394F12CC431D10560F025E0E22EF12C1E
:1041C000CF3FDC0731F0CE0164E170E00E940B2D9F
:1041D0007B0184EAA82E94E8992E1092BC00A0924C
:1041E000BC000E94A7258C018091BC0087FF0DC0F8
:1041F0008091B900887F883039F18091B900887F3B
:10420000803111F10FEF1FEF09C00E94A725801B1D
:10421000910B8E159F0540F30EEF1FEFCF3FDC078C
:10422000E1F2C6010E94BF258C179D07B0F2C801BC
:10423000DF91CF911F910F91FF90EF90DF90CF9082
:10424000BF90AF909F900895B092BB009092BC0039
:104250000E94A7258C018091BC0087FF0AC0809135
:10426000B900887F883111F0803461F610E000E0F9
:10427000DECF0E94A725801B910B8E159F0558F35A
:10428000CBCF0F931F93CF93DF93EB018093BB00B2
:1042900084E88093BC000E94A7258C018091BC001B
:1042A00087FF11C02091B900287F81E090E028327B
:1042B00011F490E080E0919581959109DF91CF9183
:1042C0001F910F910895CF3FDC0741F30E94A7256E
:1042D000801B910B8C179D0708F38EEF9FEFEECF9D
:1042E000CF92DF92EF92FF920F931F93CF93DF93C2
:1042F0006B018A017901B9010E94C720E6010C0D0A
:104300001D1DC017D10761F424E92093BC00DF9183
:10431000CF911F910F91FF90EF90DF90CF90089574
:1043200097FDF2CFB70189910E944121EACFCF9248
:10433000DF92EF92FF920F931F93CF93DF93C62FDD
:104340006A017901B8010E94C72097FD0CC0B8012D
:104350008C2F0E944121E601EC0CFD1CCE15DF05DF
:1043600011F097FF0CC024E92093BC00DF91CF919E
:104370001F910F91FF90EF90DF90CF900895B801BB
:1043800089910E944121EACF84E98093BC0008957D
:104390008EE14A9B02C08150E1F74A9BFECF08950F
:1043A0005A9880E28A95F1F75A9A0895FC013BE009
:1043B0003A95F1F798E020E080E031E040E14A955D
:1043C000F1F7880F4A9B02C08160232742E04A959B
:1043D000F1F7000040E14A95F1F7915079F790E14B
:1043E0009A95F1F799B132E03A95F1F7000040E182
:1043F0004A95F1F792FB992790F992272081920F25
:1044000090830895EF92FF920F931F93CF93DF93C2
:104410000F92CDB7DEB719828C017C01E60EF11C3C
:104420000E151F0561F481E09981911180E00F90D4
:10443000DF91CF911F910F91FF90EF9008950E940F
:10444000C821CE0101960E94D621F80181938F01E7
:10445000E7CF529A5A9A089552985A9AEA9AE9E6F8
:10446000F0E080818F7C808308956150770B91E02C
:1044700001C0990F6A95EAF720E031E0911108C078
:10448000222391F05A9A80E28A95F1F75A9808957A
:10449000492F482339F05A9A232740E24A95F1F7E9
:1044A0009695ECCF5A98F9CF5A98EDCFFF920F938B
:1044B0001F93CF93DF93EC018C01060F111DC017E2
:1044C000D10731F4DF91CF911F910F91FF900895A3
:1044D000F9900E94D02168E08F2D0E943522EFCF05
:1044E0001F920F920FB60F921124EF92FF920F932B
:1044F0001F932F933F934F935F936F937F938F936C
:104500009F93AF93BF93EF93FF93CF93DF930F925C
:10451000CDB7DEB719820E94C821CE0101960E9454
:10452000D621A82FA695A695A695282F2295257069
:104530009A2F9570290F922F937026952695920F9A
:10454000982797708981982B09F075C0A43008F0DE
:1045500072C080E18A95F1F75A9A529AB2E0BA9500
:10456000F1F700C05A98EA2EF12CEAE0AE9FD00194
:104570001124AB5FBE4F1896ED91FC9119973097BF
:10458000B1F06091FC017091FD0116962D913C9166
:104590001797260F371F13968D919C911497680FCC
:1045A000791F15964C91159712968C9109958AE072
:1045B0008E9DF0018F9DF00D1124EB5FFE4F658104
:1045C000662351F02091FC013091FD018681978195
:1045D000820F931F0E9456220E94D021F0E1FA958B
:1045E000F1F75A9852985A9A80E18A95F1F78AE041
:1045F0008E9D80018F9D100D11240B5F1E4FD801E1
:1046000012966C911297662371F12091FC01309102
:10461000FD0113968D919C91820F931F0E9402229F
:10462000D801ED91FC91882311F088E001C082E06F
:1046300080830E94C8210F90DF91CF91FF91EF916D
:10464000BF91AF919F918F917F916F915F914F91AA
:104650003F912F911F910F91FF90EF900F900FBE00
:104660000F901F901895ED91FC91DFCF0F931F9342
:10467000CF93DF93EC0104970CF0A9C08AE08C9FE4
:10468000F0018D9FF00D1124EB5FFE4F8081918131
:10469000892B09F49CC0F894529A5A9885E08A951F
:1046A000F1F700008C2F869585709C2F9570890FEF
:1046B000982F937086958695890F8E0193E0000F51
:1046C000111F9A95E1F7082B0E94D02100C068E0E5
:1046D000802F0E943522A0E1AA95F1F752985A9AAC
:1046E0004A9B27C087E090E04A9925C08AE08C9FCA
:1046F00080018D9F100D11240B5F1E4FF801658105
:104700006623A1F12091FC013091FD018681978102
:10471000820F931F0E940222811128C0529A5A9A36
:10472000D801ED91FC9182E08083789482E090E062
:1047300016C000C0D5CF0197B9F4529A5A9A8AE0B0
:104740008C9FF0018D9FF00D1124EB5FFE4F0190C7
:10475000F081E02D81E08083789481E090E0DF912A
:10476000CF911F910F91089500C0BECF0E94C82124
:10477000B0E2BA95F1F75A98529AE0E1EA95F1F76A
:104780008AE08C9FF0018D9FF00D1124EB5FFE4FAE
:104790006281662351F02091FC013091FD018381FB
:1047A0009481820F931F0E9456220E94D0218AE09A
:1047B0008C9FF0018D9FF00D1124EB5FFE4F019057
:1047C000F081E02D1082789490E080E0C8CF84E002
:1047D00090E0C5CF909307028093060208959093CE
:1047E0001B0380931A0308950E94A916811103C028
:1047F000809115030895E0911A03F0911B033097FF
:1048000021F00190F081E02D099480E00895E0917D
:104810001A03F0911B03309799F020913E01222357
:1048200059F02091470327FF07C0DC012C91119616
:104830002C93119726E02C930280F381E02D0994AC
:104840000895E0911A03F0911B03309739F022E0AC
:10485000DC012C930480F581E02D099408952091CA
:104860001803309119032817390771F09093190331
:1048700080931803E0911A03F0911B03309721F005
:104880000680F781E02D0994089520911603309158
:1048900017032817390771F09093170380931603B5
:1048A000E0911A03F0911B03309721F00084F18509
:1048B000E02D09940895FC01329680913E018823F1
:1048C00021F0809147039EE187FF96E080E09150C0
:1048D00008F4089521912223D1F38F5FF8CF662346
:1048E00001F120913E012223F1F02091470327FF9F
:1048F0001AC0462F4695469546954E3190F46770FE
:1049000021E030E002C0220F331F6A95E2F7840FE6
:10491000911DFC01828190E02823392381E0232B23
:1049200069F480E00895FC013296089621912617DB
:1049300021F0E817F907D1F7F4CF81E008959C0141
:10494000FC0132969FEF80E04191461751F09F3F66
:1049500019F4411101C0982F8F5F8630A9F79F3F4E
:1049600009F40895290F311D97FD3A95F9016283E5
:104970000895FC01329608962191261303C0DF01A9
:1049800011971C92E817F907B9F70895E62FE695F5
:10499000E695E695EE3168F4E80FF92FF11D6770A2
:1049A00021E030E001C0220F6A95EAF78281822B74
:1049B00082830895E62FE695E695E695EE3170F44C
:1049C000E80FF92FF11D677021E030E001C0220FE0
:1049D0006A95EAF720958281282322830895209101
:1049E0003E01222329F02091470327FD0C94C62481
:1049F0000C949F2420913E01222329F0209147030B
:104A000027FD0C94DA240C94B924FC013296809191
:104A10003E01882351F08091470387FF06C08EE155
:104A2000DF011D928A95E9F7089586E0F9CF089590
:104A30000C941725811105C081E080931C030C9410
:104A4000182582E0FACF83E080931C030C9418258C
:104A50000C941A2581E080931C030C9418250C9467
:104A60002A25089580916C05843031F10E944A0610
:104A700010921D0388E190E020E40FB6F894A89509
:104A8000809360000FBE2093600083B7817F8460B5
:104A900083BF83B7816083BF7894889583B78E7F07
:104AA00083BF0FB6F894A8958091600088618093C9
:104AB0006000109260000FBE089508950895CF938E
:104AC0000E945D250E941F160E945E25C0E08C2F6B
:104AD0000E94EA14811105C0CF5FC830C1F7CF91A1
:104AE000089581E0FCCF0E94090B0C94B4061F923C
:104AF0001FB61F9211248F939F93AF93BF93809102
:104B00001D03811113C08091640590916505A091EA
:104B10006605B09167054196A11DB11D809364059E
:104B200090936505A0936605B0936705BF91AF911B
:104B30009F918F911F901FBE1F90189582E084BD9A
:104B400093E095BD9AEF97BD80936E0008952FB7BF
:104B5000F8948091640590916505A0916605B091E7
:104B600067052FBF08952FB7F89460916405709181
:104B7000650580916605909167052FBF08959C019A
:104B80004FB7F8948091640590916505A0916605F2
:104B9000B09167054FBF821B930B0895CF92DF92B0
:104BA000EF92FF922FB7F894C0906405D0906505FE
:104BB000E0906605F09067052FBFA7019601261BC0
:104BC000370B480B590BCA01B901FF90EF90DF90EA
:104BD000CF90089578941F921FB61F9211248F933F
:104BE0009F93AF93BF938091640590916505A091C9
:104BF0006605B09167050196A11DB11D80936405FE
:104C000090936505A0936605B0936705BF91AF913A
:104C10009F918F911F901FBE1F90189587E797E770
:104C2000909301088093000888E19AE00FB6F89409
:104C3000A895809360000FBE90936000FFCF809195
:104C40004103089508959C0182E08093E9009FEF5D
:104C50008091E800915085FD06C085ED8A95F1F7B9
:104C600000009111F5CF8091E80085FF0CC050E065
:104C700040E066E070E0C9010E945C288091E80095
:104C80008E778093E8000895CF93DF93EC018091B5
:104C90003E018823B1F18091470387FF32C060E273
:104CA00082E08093E9008FEF9091E800815095FDBC
:104CB00006C095ED9A95F1F700008111F5CF80912E
:104CC000E80085FF1BC080913E0170E050E040E0AD
:104CD000811104C050E040E068E070E0CE010E9425
:104CE0005C288091E8008E778093E80080E2FE01E6
:104CF000A1E2B3E001900D928A95E1F7DF91CF91A7
:104D0000089568E081E0CDCF80931E037093200367
:104D100060931F0380916C05843001F582E08093DD
:104D2000E9008FEF9091E800815095FD06C095ED68
:104D30009A95F1F700008111F5CF8091E80085FF89
:104D40000DC050E040E063E070E08EE193E00E942F
:104D50005C288091E8008E778093E8000895BC017C
:104D600084E00C948426BC0183E00C94842680911A
:104D70006B05811109C00E94EC290E94492A80918B
:104D8000E20084608093E200089510926B0508951C
:104D90000C942A256091680581E0611101C080E0D2
:104DA0000C94232590916C0581E0943009F080E00B
:104DB000609168050C94282542E061EC81E00E9436
:104DC000682942E261EC82E00E94682990916C05BA
:104DD00081E0943009F080E0609168050C941A2518
:104DE00080916E05833009F460C030F48130C9F1E0
:104DF000823009F49CC008958A3009F488C08B3051
:104E000009F46EC0893009F04FC080916D05813280
:104E100009F04AC08091710590917205029708F0DF
:104E200043C08091E800877F8093E8008091E8008C
:104E300082FF36C09091F3008091F200029731F426
:104E40008091F100813011F0863021F48091F100E1
:104E5000809341038091E8008B778093E8000C9465
:104E60009C2980916D05813AF9F48091E800877F53
:104E70008093E8008091710590917205892B61F40F
:104E800060E281E293E070E00E94AB288091E8004C
:104E90008B778093E800089560E090E080E0F3CFA6
:104EA00080916C058111C2CF089580916D05813A82
:104EB000D9F78091710590917205892BA9F780919E
:104EC000E800877F8093E8008091E80080FFFCCFB6
:104ED00080913E018093F1008091E8008E77BDCFF4
:104EE00080916D05813201F7809171059091720575
:104EF000892BD1F68091E800877F8093E8000E949B
:104F00009C2980916F0580933E010C94090B809140
:104F10006D05813249F68091E800877F8093E80033
:104F20000E949C298091700580934203089580918E
:104F30006D05813A09F0B8CF8091E800877F8093B2
:104F4000E8008091E80080FFFCCF80914203C2CF4F
:104F500084B7877F84BF0FB6F894A89580916000CE
:104F6000886180936000109260000FBE80E890E03E
:104F70000FB6F89480936100909361000FBE0C947B
:104F80002F250E94EC290E94492AE2EEF0E0808160
:104F90008460808378940C94D22C82E391E00C940A
:104FA000EF2380916C058530A9F480916C058530E4
:104FB00011F00C9473250E94322580916A05882394
:104FC000A1F30E945F25882381F30E9446280E9456
:104FD000090BEBCF089508950C94EE27292F332762
:104FE0002330310519F168F42130310509F444C04A
:104FF0002230310509F445C090E080E030E020E047
:1050000025C02132310549F122323105A9F780E46A
:1050100090E02EEC39E061157105C1F086EB90E06F
:1050200028E139E06130710589F0E6CF99278130B8
:10503000910581F0009729F00297F1F6E7EAF8E090
:1050400002C0E7ECF8E0849190E09F01FA0131831F
:1050500020830895E5EBF8E0F6CF89E090E02DEDB0
:1050600038E06115710591F389E090E026EF38E0B2
:105070006130710559F3C0CF82E190E026E039E05C
:10508000E5CF8BE390E02BEC38E0E0CF80E189BD09
:1050900082E189BD09B400FEFDCF8091D8008F7DEB
:1050A0008093D8008091E00082608093E00080913E
:1050B000E00081FDFCCF0895AF92BF92CF92DF92C6
:1050C000FF920F931F93CF93DF936C01EB018A0143
:1050D0000E94BB29F82E811123C00115110539F05A
:1050E000F80180819181C81BD90BC80ED91EB12C43
:1050F000A12C2097A9F08091E80085FD22C0809125
:10510000E8008E778093E80001151105A1F0F80101
:1051100080819181A80EB91EB182A08285E0F82E0F
:105120008F2DDF91CF911F910F91FF90DF90CF9046
:10513000BF90AF9008950E94BB298823D1F2F82E2A
:10514000EFCFF60181916F018093F1002197FFEF7E
:10515000AF1ABF0ACECFFC01809173059091740500
:1051600086179707A0F06115710529F49091E80062
:105170009E779093E80090E06115710551F49111CC
:1051800008C08091E80082FF34C080E00895BC012F
:10519000F2CF80916C058823C1F18530C1F18091F7
:1051A000E80083FD30C08091E80082FDEACF809165
:1051B000E80080FFE1CF8091F3002091F200382FCA
:1051C0006115710519F02830310558F091E028304B
:1051D000310509F090E02091E8002E772093E80057
:1051E000CBCF81918093F100615071092F5F3F4FC8
:1051F000E7CF80916C05882341F0853041F08091A4
:10520000E80083FFBECF81E0089582E0089583E047
:105210000895FC0180917305909174058617970796
:10522000A0F06115710529F48091E8008E778093D4
:10523000E80090E06115710551F4911108C080916A
:10524000E80082FF35C080E00895BC01F2CF809174
:105250006C058823C9F18530C9F18091E80083FD90
:1052600031C08091E80082FDEACF8091E80080FFA4
:10527000E1CF8091F3002091F200382F6115710584
:1052800019F02830310558F091E02830310509F047
:1052900090E08091E8008E778093E800CBCF8491F6
:1052A0008093F1003196615071092F5F3F4FE6CF37
:1052B00080916C05882341F0853041F08091E800B1
:1052C00083FFBDCF81E0089582E0089583E00895D3
:1052D000982F973028F08F708093E90081E008952F
:1052E0009093E900242F762F50E0981731F07091B9
:1052F000EC002091ED005091F00021FD02C09F5F75
:10530000E8CF3091EB003E7F3093EB003091ED0021
:105310003D7F3093ED003091EB0031603093EB0036
:105320007093EC002093ED005093F0002091EE007C
:1053300027FDE5CF80E0089580916D0587FF13C0BC
:105340008091E80082FF06C08091E8008B7780930F
:10535000E80004C080916C058111F2CF089580911E
:105360006C058823D9F38091E80080FFF8CF809105
:10537000E8008E77ECCF2091E4003091E50095E6CF
:10538000A9012091EC00822F817020FF06C080913E
:10539000E80080FF06C080E008952091E80022FD2B
:1053A0001AC080916C05882389F0853089F080913E
:1053B000EB0085FD0FC02091E4003091E50042171D
:1053C0005307F9F29150E1F684E0089582E00895E0
:1053D00083E0089581E008950E945A2A0E94622A7B
:1053E000E0EEF0E0808181608083E8EDF0E0808194
:1053F0008F77808319BCA7EDB0E08C918E7F8C9362
:1054000080818F7E808310926B0508950F931F9388
:10541000CF93DF930E945A2A0E94622AC8EDD0E0FF
:1054200088818F77888388818068888388818F7D51
:10543000888319BC10926C051092680510926A0559
:105440001092690500EE10E0F80180818B7F808367
:1054500088818160888342E060E080E00E94682962
:10546000E1EEF0E080818E7F8083E2EEF0E08081EB
:1054700081608083808188608083F80180818E7F55
:105480008083888180618883DF91CF911F910F9104
:105490000895E8EDF0E080818F7E8083E7EDF0E015
:1054A00080818160808384E082BF81E080936B058E
:1054B0000C94062AE8EDF0E080818E7F80831092C4
:1054C000E20008951092DA001092E10008951F9210
:1054D0000F920FB60F9211242F933F934F935F9328
:1054E0006F937F938F939F93AF93BF93EF93FF93AC
:1054F0008091E10082FF0BC08091E20082FF07C033
:105500008091E1008B7F8093E1000E94D12C8091FB
:10551000DA0080FF19C08091D80080FF15C080910B
:10552000DA008E7F8093DA008091D90080FF96C0E8
:1055300080E189BD82E189BD09B400FEFDCF81E033
:1055400080936C050E94B7268091E10080FF19C00E
:105550008091E20080FF15C08091E2008E7F8093F1
:10556000E2008091E20080618093E2008091D800A7
:1055700080628093D80019BC85E080936C050E94FE
:10558000CA268091E10084FF2BC08091E20084FF55
:1055900027C080E189BD82E189BD89B5982F9170CE
:1055A00080FFFBCF8091D8008F7D8093D8008091C1
:1055B000E1008F7E8093E1008091E2008F7E8093F6
:1055C000E2008091E20081608093E20080916805B2
:1055D000882309F449C084E080936C050E94D22698
:1055E0008091E10083FF29C08091E20083FF25C004
:1055F0008091E100877F8093E10082E080936C05D9
:10560000109268058091E1008E7F8093E100809187
:10561000E2008E7F8093E2008091E20080618093BF
:10562000E20042E060E080E00E9468298091F000A2
:1056300088608093F0000E94C826FF91EF91BF918F
:10564000AF919F918F917F916F915F914F913F911A
:105650002F910F900FBE0F901F90189519BC1092AC
:105660006C050E94C52670CF8091E30087FD93E012
:1056700090936C05B3CF1F920F920FB60F92112427
:105680002F933F934F935F936F937F938F939F934A
:10569000AF93BF93CF93DF93EF93FF93D091E90044
:1056A000DF708091EC00C82FC17080FDC0E81092BF
:1056B000E9008091F000877F8093F00078940E9449
:1056C0007F2B1092E9008091F00088608093F000B9
:1056D000CD2BCF70C093E900FF91EF91DF91CF9177
:1056E000BF91AF919F918F917F916F915F914F91FA
:1056F0003F912F910F900FBE0F901F9018951F9301
:10570000CF93DF93CDB7DEB7AA970FB6F894DEBF7D
:105710000FBECDBF8DE695E02091F100FC012193F5
:10572000CF01F5E085379F07B9F70E94F0268091F9
:10573000E80083FF1EC180916D0590916E059A303F
:1057400008F017C1E92FF0E0EE55FF4C0C94332D13
:10575000803899F0823809F00CC1809171058F7002
:10576000873008F006C18093E9008091EB0085FB4B
:10577000882780F91092E90006C080916905909110
:105780006A05911182609091E800977F9093E800FC
:105790008093F1001092F1008091E8008E77E5C0CF
:1057A000882309F4D3C0823009F0E3C080916F05EB
:1057B0008111D6C0809171058F702FEF280F263090
:1057C00008F0D7C08093E9002091EB0020FFC8C00B
:1057D000933031F48091EB0080628093EB00C0C085
:1057E0009091EB0090619093EB0021E030E001C0DC
:1057F000220F8A95EAF72093EA001092EA0080913E
:10580000EB008860EACF8111B4C010916F051F775B
:105810008091E3008078812B8093E3008091E80001
:10582000877F8093E8000E949C298091E80080FF98
:10583000FCCF8091E30080688093E30082E0111147
:1058400083E080936C0595C08058823008F091C049
:1058500080916F05909170058C3D23E09207A1F532
:1058600083E08A838AE289834FB7F894DE01139636
:1058700020E03EE051E2E32FF0E050935700E49146
:1058800020FF03C0E295EF703F5FEF708E2F90E036
:10589000EA30C0F0C7968D939D932F5F243159F75E
:1058A0004FBF8091E800877F8093E8006AE270E054
:1058B000CE0101960E94AB288091E8008B778093FF
:1058C000E80057C0C096E7CF6091710570917205EE
:1058D000AE014F5F5F4F0E94EC27BC01892B09F49A
:1058E00048C09091E800977F9093E80089819A8161
:1058F0000E940929E1CF8038E1F58091E800877F97
:105900008093E800809168058093F10045CF811174
:1059100030C090916F05923060F58091E800877FEC
:105920008093E800909368050E949C298091680507
:10593000882311F084E005C08091E30087FDFACF51
:1059400081E080936C050E94DC2613C080916F0576
:10595000813079F481E0933009F080E080936A052A
:105960001092E9008091E800877F8093E8000E9410
:105970009C298091E80083FF0AC08091E800877F1E
:105980008093E8008091EB0080628093EB00AA9600
:105990000FB6F894DEBF0FBECDBFDF91CF911F9140
:1059A00008950895CF9380916C058823A1F0C0914C
:1059B000E900CF709091EC00892F817090FD80E814
:1059C000C82B1092E9008091E80083FD0E947F2B94
:1059D000CF70C093E900CF9108950E94EC291092F6
:1059E0006C050895E8EDF0E08081806180838AE1B4
:1059F0008A95F1F700C08091D90081700895991BB4
:105A000079E004C0991F961708F0961B881F7A95B5
:105A1000C9F780950895AA1BBB1B51E107C0AA1FB7
:105A2000BB1FA617B70710F0A61BB70B881F991F3F
:105A30005A95A9F780959095BC01CD01089597FBE3
:105A4000072E16F4009407D077FD09D00E940B2D85
:105A500007FC05D03EF4909581959F4F0895709571
:105A600061957F4F0895EE0FFF1F0590F491E02D93
:105A70000994FB01DC0102C005900D924150504099
:105A8000D8F70895FB01DC0104C08D9101908019C5
:105A900021F441505040C8F7881B990B0895FB0131
:105AA000DC0102C001900D9241505040D8F708959A
:105AB000AEE0B0E0EEE5FDE20C944E300D891E89BB
:105AC0008F89988D26E02C831A83098397FF02C063
:105AD00080E090E801979E838D83AE01455E5F4F25
